[LOGON]
8=FIX.4.4|9=42|35=A|34=1|49=SENDER1|56=TARGET1|98=0|108=30|10=153|

[LOGOUT]
8=FIX.4.4|9=42|35=5|34=2|49=SENDER1|56=TARGET1|10=135|

[TYPE1]
8=FIX.4.4|9=56|35=TYPE1|34=3|49=SENDER1|56=TARGET1|55=SYM1|44=10.0|10=247|

[TYPE2]
8=FIX.4.4|9=58|35=TYPE2|34=4|49=SENDER1|56=TARGET1|55=SYM2|44=15.0|10=284|
