Received FIX Message: 8=FIXT.1.1^A9=181^A35=X^A34=54553^A43=Y^A49=TEST01^A52=20240109-18:03:14.720^A56=SMRT03^A122=20240109-18:03:07.899^A55=AMD240112C00155000^A60=20240109-18:03:07.899^A268=1^A269=1^A270=0^A278=A05R6wEO^A279=2^A1021=1^A10=125^A
Sent FIX Message: 8=FIXT.1.1^A9=150^A35=X^A34=49647^A49=SMRT03^A52=20240109-18:03:22.429^A56=TEST01^A55=AMD240112C00155000^A60=20240109-18:03:07.899^A268=1^A269=1^A270=0^A278=A05R6wEO^A279=2^A1021=1^A10=119^A
Received FIX Message: 8=FIXT.1.1^A9=185^A35=X^A34=54555^A43=Y^A49=TEST01^A52=20240109-18:03:14.720^A56=SMRT03^A122=20240109-18:03:07.899^A55=AMD240112C00155000^A60=20240109-18:03:07.899^A268=1^A269=0^A270=49.95^A278=A05R6wEO^A279=1^A1021=1^A10=090^A
Sent FIX Message: 8=FIXT.1.1^A9=154^A35=X^A34=49649^A49=SMRT03^A52=20240109-18:03:22.429^A56=TEST01^A55=AMD240112C00155000^A60=20240109-18:03:07.899^A268=1^A269=0^A270=49.95^A278=A05R6wEO^A279=1^A1021=1^A10=084^A
Received FIX Message: 8=FIXT.1.1^A9=181^A35=X^A34=54559^A43=Y^A49=TEST01^A52=20240109-18:03:14.720^A56=SMRT03^A122=20240109-18:03:08.762^A55=AMD240112C00155000^A60=20240109-18:03:08.762^A268=1^A269=0^A270=0^A278=A05R6wEO^A279=2^A1021=1^A10=110^A
Sent FIX Message: 8=FIXT.1.1^A9=150^A35=X^A34=49653^A49=SMRT03^A52=20240109-18:03:22.429^A56=TEST01^A55=AMD240112C00155000^A60=20240109-18:03:08.762^A268=1^A269=0^A270=0^A278=A05R6wEO^A279=2^A1021=1^A10=105^A
Received FIX Message: 8=FIXT.1.1^A9=181^A35=X^A34=54560^A43=Y^A49=TEST01^A52=20240109-18:03:14.720^A56=SMRT03^A122=20240109-18:03:08.762^A55=AMD240112C00155000^A60=20240109-18:03:08.762^A268=1^A269=1^A270=0^A278=A05R6wEO^A279=2^A1021=1^A10=103^A
Sent FIX Message: 8=FIXT.1.1^A9=150^A35=X^A34=49654^A49=SMRT03^A52=20240109-18:03:22.430^A56=TEST01^A55=AMD240112C00155000^A60=20240109-18:03:08.762^A268=1^A269=1^A270=0^A278=A05R6wEO^A279=2^A1021=1^A10=099^A
Received FIX Message: 8=FIXT.1.1^A9=184^A35=X^A34=54562^A43=Y^A49=TEST01^A52=20240109-18:03:14.720^A56=SMRT03^A122=20240109-18:03:08.762^A55=AMD240112C00155000^A60=20240109-18:03:08.762^A268=1^A269=0^A270=49.8^A278=A05R6wEO^A279=1^A1021=1^A10=013^A
Sent FIX Message: 8=FIXT.1.1^A9=153^A35=X^A34=49656^A49=SMRT03^A52=20240109-18:03:22.430^A56=TEST01^A55=AMD240112C00155000^A60=20240109-18:03:08.762^A268=1^A269=0^A270=49.8^A278=A05R6wEO^A279=1^A1021=1^A10=009^A
