Sent Admin FIX Message: 8=FIXT.1.1^A9=78^A35=A^A34=72544^A49=SMRT03^A52=20240312-19:53:46.676^A56=TEST01^A98=0^A108=30^A1137=9^A10=194^A
Sent Admin FIX Message: 8=FIXT.1.1^A9=73^A35=2^A34=72545^A49=SMRT03^A52=20240312-19:53:46.676^A56=TEST01^A7=394420^A16=0^A10=211^A
Received FIX Message: 8=FIXT.1.1^A9=126^A35=f^A34=394420^A43=Y^A49=TEST01^A52=20240312-19:53:46.677^A56=SMRT03^A122=20240312-11:08:07.378^A55=QQQ240315C00353780^A326=3^A625=23^A10=218^A
Received FIX Message: 8=FIXT.1.1^A9=126^A35=f^A34=394421^A43=Y^A49=TEST01^A52=20240312-19:53:46.677^A56=SMRT03^A122=20240312-11:08:07.378^A55=QQQ240315C00354780^A326=3^A625=23^A10=220^A


Received FIX Message: 8=FIXT.1.1^A9=127^A35=f^A34=423023^A43=Y^A49=TEST01^A52=20240312-19:53:46.723^A56=SMRT03^A122=20240312-11:08:07.679^A55=SAVA240412C00012500^A326=3^A625=23^A10=243^A
Received FIX Message: 8=FIXT.1.1^A9=127^A35=f^A34=423024^A43=Y^A49=TEST01^A52=20240312-19:53:46.723^A56=SMRT03^A122=20240312-11:08:07.679^A55=SAVA240412C00015000^A326=3^A625=23^A10=242^A
Logout initiated - FIXT.1.1:SMRT03->TEST01


